{
  "_format": "hh-sol-artifact-1",
  "contractName": "ZPool",
  "sourceName": "contracts/ZPool.sol",
  "abi": [
    {
      "inputs": [],
      "stateMutability": "nonpayable",
      "type": "constructor"
    },
    {
      "inputs": [],
      "name": "CannotTransferToSelf",
      "type": "error"
    },
    {
      "inputs": [],
      "name": "ContractPaused",
      "type": "error"
    },
    {
      "inputs": [],
      "name": "InsufficientBalance",
      "type": "error"
    },
    {
      "inputs": [],
      "name": "InvalidEncryptedAmount",
      "type": "error"
    },
    {
      "inputs": [],
      "name": "InvalidOwner",
      "type": "error"
    },
    {
      "inputs": [],
      "name": "InvalidRecipient",
      "type": "error"
    },
    {
      "inputs": [],
      "name": "InvalidTokenAddress",
      "type": "error"
    },
    {
      "inputs": [],
      "name": "OnlyOwner",
      "type": "error"
    },
    {
      "inputs": [
        {
          "internalType": "address",
          "name": "token",
          "type": "address"
        }
      ],
      "name": "SafeERC20FailedOperation",
      "type": "error"
    },
    {
      "inputs": [],
      "name": "TokenAlreadySupported",
      "type": "error"
    },
    {
      "inputs": [],
      "name": "TokenNotSupported",
      "type": "error"
    },
    {
      "anonymous": false,
      "inputs": [
        {
          "indexed": true,
          "internalType": "address",
          "name": "user",
          "type": "address"
        },
        {
          "indexed": true,
          "internalType": "address",
          "name": "token",
          "type": "address"
        },
        {
          "indexed": false,
          "internalType": "euint128",
          "name": "amount",
          "type": "bytes32"
        }
      ],
      "name": "Deposit",
      "type": "event"
    },
    {
      "anonymous": false,
      "inputs": [
        {
          "indexed": true,
          "internalType": "address",
          "name": "previousOwner",
          "type": "address"
        },
        {
          "indexed": true,
          "internalType": "address",
          "name": "newOwner",
          "type": "address"
        }
      ],
      "name": "OwnershipTransferred",
      "type": "event"
    },
    {
      "anonymous": false,
      "inputs": [
        {
          "indexed": true,
          "internalType": "address",
          "name": "by",
          "type": "address"
        }
      ],
      "name": "Paused",
      "type": "event"
    },
    {
      "anonymous": false,
      "inputs": [
        {
          "indexed": true,
          "internalType": "address",
          "name": "token",
          "type": "address"
        }
      ],
      "name": "TokenAdded",
      "type": "event"
    },
    {
      "anonymous": false,
      "inputs": [
        {
          "indexed": true,
          "internalType": "address",
          "name": "token",
          "type": "address"
        }
      ],
      "name": "TokenRemoved",
      "type": "event"
    },
    {
      "anonymous": false,
      "inputs": [
        {
          "indexed": true,
          "internalType": "address",
          "name": "from",
          "type": "address"
        },
        {
          "indexed": true,
          "internalType": "address",
          "name": "to",
          "type": "address"
        },
        {
          "indexed": true,
          "internalType": "address",
          "name": "token",
          "type": "address"
        },
        {
          "indexed": false,
          "internalType": "euint128",
          "name": "amount",
          "type": "bytes32"
        }
      ],
      "name": "Transfer",
      "type": "event"
    },
    {
      "anonymous": false,
      "inputs": [
        {
          "indexed": true,
          "internalType": "address",
          "name": "by",
          "type": "address"
        }
      ],
      "name": "Unpaused",
      "type": "event"
    },
    {
      "anonymous": false,
      "inputs": [
        {
          "indexed": true,
          "internalType": "address",
          "name": "user",
          "type": "address"
        },
        {
          "indexed": true,
          "internalType": "address",
          "name": "token",
          "type": "address"
        },
        {
          "indexed": false,
          "internalType": "euint128",
          "name": "amount",
          "type": "bytes32"
        }
      ],
      "name": "Withdraw",
      "type": "event"
    },
    {
      "inputs": [
        {
          "internalType": "address",
          "name": "token",
          "type": "address"
        }
      ],
      "name": "addToken",
      "outputs": [],
      "stateMutability": "nonpayable",
      "type": "function"
    },
    {
      "inputs": [
        {
          "internalType": "address",
          "name": "token",
          "type": "address"
        },
        {
          "internalType": "externalEuint128",
          "name": "amount",
          "type": "bytes32"
        },
        {
          "internalType": "bytes",
          "name": "proof",
          "type": "bytes"
        },
        {
          "internalType": "uint256",
          "name": "plainAmount",
          "type": "uint256"
        }
      ],
      "name": "deposit",
      "outputs": [],
      "stateMutability": "nonpayable",
      "type": "function"
    },
    {
      "inputs": [
        {
          "internalType": "address",
          "name": "token",
          "type": "address"
        },
        {
          "internalType": "address",
          "name": "to",
          "type": "address"
        },
        {
          "internalType": "uint256",
          "name": "amount",
          "type": "uint256"
        }
      ],
      "name": "emergencyRecover",
      "outputs": [],
      "stateMutability": "nonpayable",
      "type": "function"
    },
    {
      "inputs": [
        {
          "internalType": "address",
          "name": "user",
          "type": "address"
        },
        {
          "internalType": "address",
          "name": "token",
          "type": "address"
        }
      ],
      "name": "getBalance",
      "outputs": [
        {
          "internalType": "euint128",
          "name": "",
          "type": "bytes32"
        }
      ],
      "stateMutability": "view",
      "type": "function"
    },
    {
      "inputs": [
        {
          "internalType": "address",
          "name": "token",
          "type": "address"
        }
      ],
      "name": "getTotalSupply",
      "outputs": [
        {
          "internalType": "euint128",
          "name": "",
          "type": "bytes32"
        }
      ],
      "stateMutability": "view",
      "type": "function"
    },
    {
      "inputs": [
        {
          "internalType": "address",
          "name": "user",
          "type": "address"
        },
        {
          "internalType": "address",
          "name": "token",
          "type": "address"
        }
      ],
      "name": "hasBalance",
      "outputs": [
        {
          "internalType": "bool",
          "name": "",
          "type": "bool"
        }
      ],
      "stateMutability": "view",
      "type": "function"
    },
    {
      "inputs": [],
      "name": "owner",
      "outputs": [
        {
          "internalType": "address",
          "name": "",
          "type": "address"
        }
      ],
      "stateMutability": "view",
      "type": "function"
    },
    {
      "inputs": [],
      "name": "pause",
      "outputs": [],
      "stateMutability": "nonpayable",
      "type": "function"
    },
    {
      "inputs": [],
      "name": "paused",
      "outputs": [
        {
          "internalType": "bool",
          "name": "",
          "type": "bool"
        }
      ],
      "stateMutability": "view",
      "type": "function"
    },
    {
      "inputs": [
        {
          "internalType": "address",
          "name": "token",
          "type": "address"
        }
      ],
      "name": "removeToken",
      "outputs": [],
      "stateMutability": "nonpayable",
      "type": "function"
    },
    {
      "inputs": [
        {
          "internalType": "address",
          "name": "",
          "type": "address"
        }
      ],
      "name": "supportedTokens",
      "outputs": [
        {
          "internalType": "bool",
          "name": "",
          "type": "bool"
        }
      ],
      "stateMutability": "view",
      "type": "function"
    },
    {
      "inputs": [
        {
          "internalType": "address",
          "name": "to",
          "type": "address"
        },
        {
          "internalType": "address",
          "name": "token",
          "type": "address"
        },
        {
          "internalType": "externalEuint128",
          "name": "amount",
          "type": "bytes32"
        },
        {
          "internalType": "bytes",
          "name": "proof",
          "type": "bytes"
        }
      ],
      "name": "transfer",
      "outputs": [],
      "stateMutability": "nonpayable",
      "type": "function"
    },
    {
      "inputs": [
        {
          "internalType": "address",
          "name": "newOwner",
          "type": "address"
        }
      ],
      "name": "transferOwnership",
      "outputs": [],
      "stateMutability": "nonpayable",
      "type": "function"
    },
    {
      "inputs": [],
      "name": "unpause",
      "outputs": [],
      "stateMutability": "nonpayable",
      "type": "function"
    },
    {
      "inputs": [
        {
          "internalType": "address",
          "name": "token",
          "type": "address"
        },
        {
          "internalType": "externalEuint128",
          "name": "amount",
          "type": "bytes32"
        },
        {
          "internalType": "bytes",
          "name": "proof",
          "type": "bytes"
        },
        {
          "internalType": "uint256",
          "name": "plainAmount",
          "type": "uint256"
        }
      ],
      "name": "withdraw",
      "outputs": [],
      "stateMutability": "nonpayable",
      "type": "function"
    }
  ],
  "bytecode": "0x608060405234801561000f575f80fd5b5061018a6100ae604080516080810182525f80825260208201819052918101829052606081019190915250604080516080810182527350157cffd6bbfa2dece204a89ec419c23ef5755d815273cd3ab3bd6bcc0c0bf3e27912a92043e817b1cf696020820152731364cbbf2cdf5032c47d8226a6f6fbd2afcdacac9181019190915273901f8942346f7ab3a01f6d7613119bca447bb030606082015290565b80517fed8d60e34876f751cc8b014c560745351147d9de11b9347c854e881b128ea60080546001600160a01b03199081166001600160a01b039384161790915560208301517fed8d60e34876f751cc8b014c560745351147d9de11b9347c854e881b128ea6018054831691841691909117905560408301517fed8d60e34876f751cc8b014c560745351147d9de11b9347c854e881b128ea6028054831691841691909117905560608301517fed8d60e34876f751cc8b014c560745351147d9de11b9347c854e881b128ea6038054909216921691909117905550565b7f5ea69329017273582817d320489fbd94f775580e90c092699ca6f3d12fdf7d0080546001600160a01b03191673a02cda4ca3a71d7c46997716f4283aa851c28812179055600380546001600160a01b03191633179055611a4f806101ee5f395ff3fe608060405234801561000f575f80fd5b50600436106100f0575f3560e01c80638456cb5911610093578063b05d812b11610063578063b05d812b14610211578063d48bfca714610224578063d4fac45d14610237578063f2fde38b1461026e575f80fd5b80638456cb59146101b85780638da5cb5b146101c0578063918409aa146101eb578063ad1329d1146101fe575f80fd5b80635c975abb116100ce5780635c975abb146101245780635fa7b5841461014d57806368c4ac261461016057806368da10ae14610182575f80fd5b806320e6ca0b146100f457806322aa23ce146101095780633f4ba83a1461011c575b5f80fd5b610107610102366004611844565b610281565b005b610107610117366004611844565b6105b9565b6101076108c5565b60035461013890600160a01b900460ff1681565b60405190151581526020015b60405180910390f35b61010761015b3660046118a1565b610929565b61013861016e3660046118a1565b60026020525f908152604090205460ff1681565b6101aa6101903660046118a1565b6001600160a01b03165f9081526001602052604090205490565b604051908152602001610144565b6101076109d7565b6003546101d3906001600160a01b031681565b6040516001600160a01b039091168152602001610144565b6101076101f93660046118ba565b610a41565b61010761020c366004611924565b610db1565b61013861021f36600461195d565b610e1c565b6101076102323660046118a1565b610e4b565b6101aa61024536600461195d565b6001600160a01b038082165f908152602081815260408083209386168352929052205492915050565b61010761027c3660046118a1565b610f21565b6001600160a01b0385165f90815260026020526040902054859060ff166102bb57604051633dd1b30560e01b815260040160405180910390fd5b600354600160a01b900460ff16156102e65760405163ab35696f60e01b815260040160405180910390fd5b5f821161033a5760405162461bcd60e51b815260206004820152601e60248201527f5a506f6f6c3a20706c61696e416d6f756e74206d757374206265203e2030000060448201526064015b60405180910390fd5b5f61037a8686868080601f0160208091040260200160405190810160405280939291908181526020018383808284375f92019190915250610fe692505050565b9050806103c95760405162461bcd60e51b815260206004820152601f60248201527f5a506f6f6c3a20496e76616c696420656e6372797074656420616d6f756e74006044820152606401610331565b6103de6001600160a01b038816333086610ff3565b6001600160a01b0387165f90815260208181526040808320338452909152812054908115610451576104108284611075565b90505f61041d82846110a3565b905061042a8184846110d1565b6001600160a01b038b165f9081526020818152604080832033845290915290205550610475565b6001600160a01b0389165f9081526020818152604080832033845290915290208390555b6001600160a01b0389165f9081526001602052604090205480156104d8575f61049e8286611075565b90505f6104ab82846110a3565b90506104b88184846110d1565b6001600160a01b038d165f90815260016020526040902055506104f39050565b6001600160a01b038a165f9081526001602052604090208490555b6001600160a01b038a165f9081526020818152604080832033845290915290205461051d906110e5565b506001600160a01b038a165f9081526020818152604080832033808552925290912054610549916110f4565b506001600160a01b038a165f9081526001602052604090205461056b906110e5565b506040518481526001600160a01b038b169033907f8d36c903367a489274726e9857668ed77c3f7b9e871fefdb7d76d1e4ccfb1e5b906020015b60405180910390a350505050505050505050565b6001600160a01b0385165f90815260026020526040902054859060ff166105f357604051633dd1b30560e01b815260040160405180910390fd5b600354600160a01b900460ff161561061e5760405163ab35696f60e01b815260040160405180910390fd5b5f821161066d5760405162461bcd60e51b815260206004820152601e60248201527f5a506f6f6c3a20706c61696e416d6f756e74206d757374206265203e203000006044820152606401610331565b5f6106ad8686868080601f0160208091040260200160405190810160405280939291908181526020018383808284375f92019190915250610fe692505050565b9050806106fc5760405162461bcd60e51b815260206004820152601f60248201527f5a506f6f6c3a20496e76616c696420656e6372797074656420616d6f756e74006044820152606401610331565b6001600160a01b0387165f90815260208181526040808320338452909152902054610726816110e5565b5061073181336110f4565b505f8115610784576107438284611106565b90505f6107508284611134565b905061075d8184846110d1565b6001600160a01b038b165f908152602081815260408083203384529091529020555061079d565b604051631e9acf1760e31b815260040160405180910390fd5b6001600160a01b0389165f9081526001602052604090205480156107fb575f6107c68286611106565b90505f6107d38284611134565b90506107e08184846110d1565b6001600160a01b038d165f9081526001602052604090205550505b61080f6001600160a01b038b163388611162565b6001600160a01b038a165f90815260208181526040808320338452909152902054610839906110e5565b506001600160a01b038a165f9081526020818152604080832033808552925290912054610865916110f4565b506001600160a01b038a165f90815260016020526040902054610887906110e5565b506040518481526001600160a01b038b169033907f5226b7e23478750a288e425a2ecbafa1b072768d1b7c760ac01f4ad5d927066b906020016105a5565b6003546001600160a01b031633146108f057604051635fc483c560e01b815260040160405180910390fd5b6003805460ff60a01b1916905560405133907f5db9ee0a495bf2e6ff9c91a7834c1ba4fdd244a5e8aa4e537bd38aeae4b073aa905f90a2565b6003546001600160a01b0316331461095457604051635fc483c560e01b815260040160405180910390fd5b6001600160a01b0381165f90815260026020526040902054819060ff1661098e57604051633dd1b30560e01b815260040160405180910390fd5b6001600160a01b0382165f81815260026020526040808220805460ff19169055517f4c910b69fe65a61f7531b9c5042b2329ca7179c77290aa7e2eb3afa3c8511fd39190a25050565b6003546001600160a01b03163314610a0257604051635fc483c560e01b815260040160405180910390fd5b6003805460ff60a01b1916600160a01b17905560405133907f62e78cea01bee320cd4e420270b5ea74000d11b0c9f74754ebdbfc544b05a258905f90a2565b6001600160a01b0384165f90815260026020526040902054849060ff16610a7b57604051633dd1b30560e01b815260040160405180910390fd5b600354600160a01b900460ff1615610aa65760405163ab35696f60e01b815260040160405180910390fd5b6001600160a01b038616610acd57604051634e46966960e11b815260040160405180910390fd5b336001600160a01b03871603610af657604051636d6c4ee560e11b815260040160405180910390fd5b5f610b368585858080601f0160208091040260200160405190810160405280939291908181526020018383808284375f92019190915250610fe692505050565b905080610b855760405162461bcd60e51b815260206004820152601f60248201527f5a506f6f6c3a20496e76616c696420656e6372797074656420616d6f756e74006044820152606401610331565b6001600160a01b038681165f9081526020818152604080832033845290915280822054928a16825281205490821561078457610bc18385611106565b90505f610bce8285611134565b9050610bdb8185846110d1565b6001600160a01b038b165f90815260208181526040808320338452909152902055505f8215610c7557610c0e8386611075565b90505f610c1b82856110a3565b9050610c288185846110d1565b5f808d6001600160a01b03166001600160a01b031681526020019081526020015f205f8e6001600160a01b03166001600160a01b031681526020019081526020015f208190555050610c9b565b6001600160a01b03808b165f90815260208181526040808320938f168352929052208590555b6001600160a01b038a165f90815260208181526040808320338452909152902054610cc5906110e5565b506001600160a01b038a165f9081526020818152604080832033808552925290912054610cf1916110f4565b506001600160a01b03808b165f90815260208181526040808320938f1683529290522054610d1e906110e5565b506001600160a01b03808b165f90815260208181526040808320938f1683529290522054610d4c908c6110f4565b50896001600160a01b03168b6001600160a01b0316336001600160a01b03167fa8b786a4161db5b0025130e520eedd84d9621ccb721690197ffc61d3a602c85988604051610d9c91815260200190565b60405180910390a45050505050505050505050565b6003546001600160a01b03163314610ddc57604051635fc483c560e01b815260040160405180910390fd5b6001600160a01b038216610e0357604051634e46966960e11b815260040160405180910390fd5b610e176001600160a01b0384168383611162565b505050565b6001600160a01b038181165f9081526020818152604080832093861683529290529081205415155b9392505050565b6003546001600160a01b03163314610e7657604051635fc483c560e01b815260040160405180910390fd5b6001600160a01b038116610e9d57604051630f58058360e11b815260040160405180910390fd5b6001600160a01b0381165f9081526002602052604090205460ff1615610ed65760405163c78e82ad60e01b815260040160405180910390fd5b6001600160a01b0381165f81815260026020526040808220805460ff19166001179055517f784c8f4dbf0ffedd6e72c76501c545a70f8b203b30a26ce542bf92ba87c248a49190a250565b6003546001600160a01b03163314610f4c57604051635fc483c560e01b815260040160405180910390fd5b6001600160a01b038116610f73576040516349e27cff60e01b815260040160405180910390fd5b6003546040516001600160a01b038084169216907f8be0079c531659141344cd1fd0a4f28419497f9722a3daafe3b4186f6b6457e0905f90a3600380547fffffffffffffffffffffffff0000000000000000000000000000000000000000166001600160a01b0392909216919091179055565b5f610e4483836006611193565b6040516001600160a01b03848116602483015283811660448301526064820183905261106f9186918216906323b872dd906084015b604051602081830303815290604052915060e01b6020820180517bffffffffffffffffffffffffffffffffffffffffffffffffffffffff83818316178352505050506112b3565b50505050565b5f82611087576110845f61131f565b92505b81611098576110955f61131f565b91505b610e4483835f611343565b5f826110b5576110b25f61131f565b92505b816110c6576110c35f61131f565b91505b610e4483835f611426565b5f6110dd8484846114c3565b949350505050565b5f6110f0823061156c565b5090565b5f6110ff838361156c565b5090919050565b5f82611118576111155f61131f565b92505b81611129576111265f61131f565b91505b610e4483835f6115f5565b5f82611146576111435f61131f565b92505b81611157576111545f61131f565b91505b610e4483835f611692565b6040516001600160a01b03838116602483015260448201839052610e1791859182169063a9059cbb90606401611028565b7fed8d60e34876f751cc8b014c560745351147d9de11b9347c854e881b128ea6015460405163196d0b9b60e01b81525f917fed8d60e34876f751cc8b014c560745351147d9de11b9347c854e881b128ea600916001600160a01b039091169063196d0b9b9061120c9088903390899089906004016119ae565b6020604051808303815f875af1158015611228573d5f803e3d5ffd5b505050506040513d601f19601f8201168201806040525081019061124c9190611a17565b8154604051630f8e573b60e21b8152600481018390523360248201529193506001600160a01b031690633e395cec906044015f604051808303815f87803b158015611295575f80fd5b505af11580156112a7573d5f803e3d5ffd5b50505050509392505050565b5f8060205f8451602086015f885af1806112d2576040513d5f823e3d81fd5b50505f513d915081156112e95780600114156112f6565b6001600160a01b0384163b155b1561106f57604051635274afe760e01b81526001600160a01b0385166004820152602401610331565b5f61133d826fffffffffffffffffffffffffffffffff16600661172f565b92915050565b5f8082156113565750600160f81b611359565b505f5b7fed8d60e34876f751cc8b014c560745351147d9de11b9347c854e881b128ea6015460405163022f65e760e31b815260048101879052602481018690526001600160f81b0319831660448201527fed8d60e34876f751cc8b014c560745351147d9de11b9347c854e881b128ea600916001600160a01b03169063117b2f38906064015b6020604051808303815f875af11580156113f8573d5f803e3d5ffd5b505050506040513d601f19601f8201168201806040525081019061141c9190611a17565b9695505050505050565b5f8082156114395750600160f81b61143c565b505f5b7fed8d60e34876f751cc8b014c560745351147d9de11b9347c854e881b128ea60154604051637210768160e01b815260048101879052602481018690526001600160f81b0319831660448201527fed8d60e34876f751cc8b014c560745351147d9de11b9347c854e881b128ea600916001600160a01b0316906372107681906064016113dc565b5f807fed8d60e34876f751cc8b014c560745351147d9de11b9347c854e881b128ea6006001810154604051637702dcff60e01b81526004810188905260248101879052604481018690529192506001600160a01b031690637702dcff906064016020604051808303815f875af115801561153f573d5f803e3d5ffd5b505050506040513d601f19601f820116820180604052508101906115639190611a17565b95945050505050565b5f7fed8d60e34876f751cc8b014c560745351147d9de11b9347c854e881b128ea6008054604051635ca4b5b160e11b8152600481018690526001600160a01b03858116602483015292935091169063b9496b62906044015f604051808303815f87803b1580156115da575f80fd5b505af11580156115ec573d5f803e3d5ffd5b50505050505050565b5f8082156116085750600160f81b61160b565b505f5b7fed8d60e34876f751cc8b014c560745351147d9de11b9347c854e881b128ea601546040516303056db360e31b815260048101879052602481018690526001600160f81b0319831660448201527fed8d60e34876f751cc8b014c560745351147d9de11b9347c854e881b128ea600916001600160a01b03169063182b6d98906064016113dc565b5f8082156116a55750600160f81b6116a8565b505f5b7fed8d60e34876f751cc8b014c560745351147d9de11b9347c854e881b128ea601546040516385362ee760e01b815260048101879052602481018690526001600160f81b0319831660448201527fed8d60e34876f751cc8b014c560745351147d9de11b9347c854e881b128ea600916001600160a01b0316906385362ee7906064016113dc565b7fed8d60e34876f751cc8b014c560745351147d9de11b9347c854e881b128ea60154604051639cd07acb60e01b81525f917fed8d60e34876f751cc8b014c560745351147d9de11b9347c854e881b128ea600916001600160a01b0390911690639cd07acb906117a49087908790600401611a2e565b6020604051808303815f875af11580156117c0573d5f803e3d5ffd5b505050506040513d601f19601f820116820180604052508101906110dd9190611a17565b80356001600160a01b03811681146117fa575f80fd5b919050565b5f8083601f84011261180f575f80fd5b50813567ffffffffffffffff811115611826575f80fd5b60208301915083602082850101111561183d575f80fd5b9250929050565b5f805f805f60808688031215611858575f80fd5b611861866117e4565b945060208601359350604086013567ffffffffffffffff811115611883575f80fd5b61188f888289016117ff565b96999598509660600135949350505050565b5f602082840312156118b1575f80fd5b610e44826117e4565b5f805f805f608086880312156118ce575f80fd5b6118d7866117e4565b94506118e5602087016117e4565b935060408601359250606086013567ffffffffffffffff811115611907575f80fd5b611913888289016117ff565b969995985093965092949392505050565b5f805f60608486031215611936575f80fd5b61193f846117e4565b925061194d602085016117e4565b9150604084013590509250925092565b5f806040838503121561196e575f80fd5b611977836117e4565b9150611985602084016117e4565b90509250929050565b605481106119aa57634e487b7160e01b5f52602160045260245ffd5b9052565b8481525f60206001600160a01b03861660208401526080604084015284518060808501525f5b818110156119f05786810183015185820160a0015282016119d4565b505f60a0828601015260a0601f19601f83011685010192505050611563606083018461198e565b5f60208284031215611a27575f80fd5b5051919050565b82815260408101610e44602083018461198e56fea164736f6c6343000818000a",
  "linkReferences": {},
  "deployedLinkReferences": {}
}